:100000000C942A000C9447000C9447000C94470071
:100010000C9447000C9447000C9447000C94470044
:100020000C9447000C9478040C9447000C944700FF
:100030000C9447000C9447000C9447000C94470024
:100040000C9447000C9447000C9447000C94470014
:100050000C94470011241FBECFE5D4E0DEBFCDBF16
:1000600010E0A0E6B0E0E6EDF9E002C005900D92E8
:10007000A23BB107D9F710E0A2EBB0E001C01D929E
:10008000AA3BB107E1F70E946D030C94E9040C94BC
:1000900000000F931F93182F062F0E949A0080EDE7
:1000A0000E94A600882371F0812F0E94A600882359
:1000B00049F0802F0E94A600882321F00E94A00012
:1000C00081E001C080E01F910F9108951F93CF93AD
:1000D000DF93182FEB010E949A0080ED0E94A6008A
:1000E0008823B1F0812F0E94A600882389F00E9406
:1000F0009A0081ED0E94A600882351F0CE0160E0B5
:100100000E94BC00882321F00E94A00081E001C071
:1001100080E0DF91CF911F91089582E080B981B195
:10012000836081B986B7846086BF089586B78B7F68
:1001300086BF089584EA86BF06B607FEFDCF089500
:1001400084E986BF06B604FCFDCF089583B984E830
:1001500086BF06B607FEFDCF81B1887F883149F0A2
:1001600081B1887F883229F081B190E0887F803426
:1001700009F491E0892F0895FC01662319F086B7F0
:10018000806402C086B78F7B86BF86B7806886BFD3
:1001900006B607FEFDCF81B1887F883531F081B189
:1001A000887F803511F080E0089583B1808381E0FD
:1001B000089588E388BB80E282BB80ED97E00197D9
:1001C000F1F712BA84EF91E028EC30E0F9013197B1
:1001D000F1F70197D9F780ED97E0FC013197F1F73E
:1001E00021E028BB20E222BB0197F1F712BA84EF8D
:1001F00091E028EC30E0F9013197F1F70197D9F758
:1002000080ED97E0FC013197F1F72CE028BB20E26C
:1002100022BB0197F1F712BA84EF91E028EC30E0AD
:10022000F9013197F1F70197D9F780ED97E0FC01DB
:100230003197F1F720E828BB20E222BB0197F1F7C4
:1002400012BA84EF91E028EC30E0F9013197F1F730
:100250000197D9F780ED97E00197F1F7089588BBF2
:1002600080E282BB80ED97E00197F1F712BA84EF4C
:1002700091E028EC30E0F9013197F1F70197D9F7D7
:10028000089588BB88E282BB80ED97E00197F1F783
:1002900088E082BB80E197E20197F1F70895FC01C5
:1002A00078E240ED57E068E020E137E209C088BB22
:1002B00072BBCA010197F1F762BBC9010197F1F75F
:1002C00081918823A1F7089581E088BB80E282BBF9
:1002D00080ED97E00197F1F712BA84EF91E028ECF6
:1002E00030E0F9013197F1F70197D9F708956130BE
:1002F00011F490EC01C090E8980F98BB80E282BBAB
:1003000080ED97E00197F1F712BA84EF91E028ECC5
:1003100030E0F9013197F1F70197D9F70895CF92BD
:10032000DF92EF92FF920F931F93CF93DF93DC0145
:10033000EA0120E2C22E40ED57E098ECE92EF12CC4
:1003400088E2D82E38E000E117E225C0A031B105DF
:1003500024F06F5F7F4FA0E0B0E0613011F480ECDB
:1003600001C080E88A0F88BBC2BACA010197F1F7C1
:1003700012BA84EF91E0F7013197F1F70197D9F7BD
:1003800028BBD2BACA010197F1F732BBC801019765
:10039000F1F71196219628812223C1F6DF91CF91A2
:1003A0001F910F91FF90EF90DF90CF9008950F93E2
:1003B0001F93DF93CF9300D000D00F92CDB7DEB75D
:1003C0009C010097B1F4E0E6F0E078E240ED57E000
:1003D00068E020E137E209C088BB72BBCA0101971F
:1003E000F1F762BBC9010197F1F781918823A1F769
:1003F00058C00996439728F5E3E6F0E0B8E260EDCF
:1004000077E0A8E040E157E209C088BBB2BBCB016E
:100410000197F1F7A2BBCA010197F1F781918823F7
:10042000A1F7822F805D88BB88E282BB80ED97E0D8
:100430000197F1F788E082BB80E197E20197F1F73D
:1004400030C040E08E010F5F1F4FF801E40FF11D37
:10045000C9016AE070E00E94C20480834F5FC90155
:100460006AE070E00E94C2049B016115710569F7A2
:1004700010C0FE01E40FF11D8081805D88BBA2BB2E
:10048000CB010197F1F752BBC9010197F1F7415038
:1004900006C0A8E260ED77E058E020E137E24423AF
:1004A00041F70F900F900F900F900F90CF91DF9129
:1004B0001F910F9108958FEF8BBB8ABB08951F93F7
:1004C000CF93DF9360E070E0C1E0D0E08BB39E019A
:1004D000062E02C0220F331F0A94E2F7322F922F0A
:1004E000909598239BBB44E050E0142F14509AB38E
:1004F000DE01042E02C0AA0FBB1F0A94E2F7EA2F06
:100500008A2F809589238ABB89B390E0042E02C08C
:10051000959587950A94E2F780FD22C080E49CE9D6
:100520000197F1F789B390E08A239B23892BD1F3BC
:1005300080ED97E00197F1F78AB3E82BEABB80E200
:1005400093E028EC30E0F9013197F1F70197D9F702
:10055000812F8F5F660F771F660F771F860F10C082
:100560004F5F5F4F4830510509F0BFCF8BB3382B39
:100570003BBB6F5F7F4F6430710509F0A7CF80E010
:10058000DF91CF911F910895CF92DF92EF92FF926A
:100590000F931F936C017B018A0180E0BA010E94D6
:1005A000660081E0B7010E94660082E0B6010E9409
:1005B0006600F8014081842F90E08077907024E0FD
:1005C000959587952A95E1F79C0103E0220F331F4B
:1005D0000A95E1F7880F991F820F4F70840F80836F
:1005E000F7014081842F90E080779070B4E095957A
:1005F0008795BA95E1F79C01A3E0220F331FAA95D6
:10060000E1F7880F991F820F4F70840F8083F601E6
:100610004081842F90E08071907064E0959587957B
:100620006A95E1F79C0153E0220F331F5A95E1F7D9
:10063000880F991F820F4F70840F80831F910F9135
:10064000FF90EF90DF90CF900895FF920F931F934C
:10065000082FF62E142F80E060E80E944900812FB9
:100660006AE00E94B604282F30E074E0220F331FA6
:100670007A95E1F7812F0E94B604192F122B802F53
:100680000E94B604282F30E054E0220F331F5A9501
:10069000E1F7802F0E94B604922B82E0692F0E941E
:1006A00049008F2D6AE00E94B604282F30E044E014
:1006B000220F331F4A95E1F78F2D0E94B604922B2B
:1006C00081E0692F0E9449001F7780E0612F0E941E
:1006D00049001F910F91FF9008950F931F9384E09D
:1006E00084BB8FEF81BB87BB81E083BF89BF7894D8
:1006F0000E94D90084EF91E028EC30E0F9013197B5
:10070000F1F70197D9F780E060E00E9477018FEF61
:100710008BBB8ABB1092B9008091B9008093B8005E
:100720008091B8008093B70080E066EB70E00E9493
:1007300066008091B6008F778093B6006091B60016
:1007400080E00E94490000E00E945F028823E1F3FC
:100750008530D1F7F894002309F062C080E060E0B2
:100760000E94770185E690E00E944F0180E060E002
:100770000E94770186E790E00E944F0180E061E0EF
:100780000E94770185E690E00E944F0180E061E0E1
:100790000E9477018FE790E00E944F0110E00E94D5
:1007A0005F028823E1F3853069F4113009F071C0EC
:1007B0008091B7006091B8004091B90021E00E949B
:1007C000250367C0833059F78091B7008F5F80930E
:1007D000B7008091B7008D3010F01092B70080E024
:1007E00061E00E9477018091B7008A3030F480E3A5
:1007F0000E9441018091B7000EC08091B7006AE06D
:100800000E94B604805D0E9441018091B7006AE0B9
:100810000E94B604892F805D0E94410111E0BFCF84
:10082000013079F480E060E00E94770185E690E095
:100830000E944F0180E060E00E94770188E890E02C
:1008400010C0023009F580E060E00E94770185E683
:1008500090E00E944F0180E060E00E94770188E90B
:1008600090E00E944F0180E061E00E94770185E600
:1008700090E00E944F0180E061E00E9477018FE7E5
:1008800090E00E944F0105C0033019F40E946401FA
:1008900078940F5F043008F457CF55CF9091B6008D
:1008A0008091B000981719F180E060E00E94770114
:1008B00088EA90E00E944F018091B40090E00E948D
:1008C000D7018EEA90E00E944F018091B50090E040
:1008D0000E94D7018EEA90E00E944F018091B600FD
:1008E00090E00E94D7018091B6008093B0000895F7
:1008F0001F920F920FB60F9211242F933F934F9395
:100900005F936F937F938F939F93AF93BF93EF9377
:10091000FF938091B2009091B30001969093B30041
:100920008093B20083519A4780F0F8941092B300FC
:100930001092B20084EB90E065EB70E046EB50E083
:100940000E94C4020E944E047894FF91EF91BF91DF
:10095000AF919F918F917F916F915F914F913F9157
:100960002F910F900FBE0F901F901895991B79E053
:1009700004C0991F961708F0961B881F7A95C9F72F
:100980008095089597FB092E07260AD077FD04D09D
:100990000CD006D000201AF4709561957F4F089511
:1009A000F6F7909581959F4F0895AA1BBB1B51E1C7
:1009B00007C0AA1FBB1FA617B70710F0A61BB70BCF
:1009C000881F991F5A95A9F780959095BC01CD0174
:0609D0000895F894FFCF2A
:1009D6003030003000202020202020202020202021
:1009E6002020202020005365742054696D65003056
:1009F600302D30302D3030005365742053747269B9
:100A060070312054696D65005365742053747269A2
:100A160070322054696D650054696D653A003A007C
:020A26003D0091
:00000001FF
